:100000000C9453010C946E010C946E010C946E01CF
:100010000C946E010C946E010C946E010C946E01A4
:100020000C946E010C9417100C94F3110C946E0147
:100030000C946E010C9494110C946E010C946E014E
:100040000C94450F0C946E010C94980B0C946E015B
:100050000C946E010C946E010C946E010C948B1434
:100060000C94E7120C946E01C813E413FB13FE13F7
:10007000091410141314541416141814D213E4137E
:10008000FB13FE130114541439143C143F1442148E
:10009000451448144B144E14511459145914541443
:1000A00059145914571443757272656E74202020C8
:1000B0005B302E31415D43757272656E74526177AB
:1000C0002020202020206D41682020202020205B3F
:1000D00031306D41685D54656D702E202020205BAD
:1000E000302E312D435D566F6C7461676520202082
:1000F0005B302E31565D72706D2028726177292039
:10010000202020202020536574706F696E74202099
:100110002020202020204D6178536574706F696E17
:1001200074202020202050504D536574706F696EEC
:10013000742020202020506172616D2E50776D5305
:1001400063616C696E67506172616D2E4D617843B9
:10015000757272656E74506172616D2E4D61785466
:10016000656D702E2020506172616D2E5363616C3D
:10017000652049202020506172616D2E42697473A0
:10018000202020202020506172616D2E53746172F6
:100190007450574D2020493243204C6F73742020F7
:1001A00020202020202044656275673136202020E1
:1001B00020202020202044656275673137202020D0
:1001C00020202020202044656275673138202020BF
:1001D00020202020202044656275673139202020AE
:1001E00020202020202044656275673230202020A6
:1001F0002020202020204465627567323120202095
:100200002020202020204465627567323220202083
:100210002020202020204465627567323320202072
:100220002020202020204465627567323420202061
:100230002020202020204465627567323520202050
:10024000202020202020446562756732362020203F
:10025000202020202020446562756732372020202E
:10026000202020202020446562756732382020201D
:10027000202020202020446562756732392020200C
:100280002020202020204861726477617265202040
:100290002020202020204C696D69742049202020D6
:1002A00020202020202011241FBECFEFD4E0DEBF6D
:1002B000CDBF11E0A0E0B1E0E8EBF0E302C00590B3
:1002C0000D92AC32B107D9F712E0ACE2B1E001C057
:1002D0001D92A838B107E1F70C944A070C9400006E
:1002E000CF938AE00E94900A81E40E94900A84E4FD
:1002F0000E94900A82E50E94900A8AE30E94900A76
:10030000C09103018C2F805D8A3328F081E30E9425
:10031000900A8C2F8A5D0E94900A8AE00E94900ABF
:100320008DE00E94900ACF91089520914A0130916A
:100330004B01809183026AE0869FC00111244091A5
:100340004801509149018417950790F4579880917E
:100350000901869FC0011124C2968417950740F4B5
:1003600010928900109288008BB1877C8BB902C0F3
:1003700037FF02C020E030E0809134018F3F61F010
:10038000992763E0880F991F6A95E1F7805B9F4F7B
:10039000821793070CF49C0187E02C3F380714F078
:1003A0002BEF37E0C90137FD039695958795959515
:1003B000879590932E0180932D01880F991F880FA8
:1003C000991F281B390B20932F010895CF93DF939A
:1003D00080910E0190910F0141E2833094070CF05F
:1003E00042C029E1813F920744F066E070E00E943C
:1003F0001318EB0128E735E036C040E1833C940751
:1004000074F0BC0197FF02C0695F7F4FEB0123E0EE
:10041000D595C7952A95E1F72AE634E024C029E06E
:100420008938920744F066E070E00E941318EB01EF
:100430002EE135E018C045E0893294076CF0BC012C
:1004400097FF02C06D5F7F4FEB01D595C795D5959E
:10045000C7952DEE35E007C097FD0196EC01D595C7
:10046000C7952AE337E02C1B3D0BE901C9016AE07F
:1004700070E00E94131860930D013093CF01209318
:10048000CE01683708F041C0E0910A01F0910B01FC
:100490002E9FB0012F9F700D3E9F700D112477FF8E
:1004A00002C061507F4F272F332727FD3A95CF0198
:1004B000A3E0880F991FAA95E1F78E0F9F1F8E0F5B
:1004C0009F1F67E070E00E941318261B370B809176
:1004D00044019091450173E0969587957A95E1F7EF
:1004E000820F931F6AE070E00E9413189B01CF01F6
:1004F00063E070E00E94131880910A01621773078D
:1005000014F4861B04C0821B02C080910A018093F0
:100510000C0180914401909145012AEF30E0281BA5
:10052000390B293C310514F028EC30E08FEF2E3CDC
:10053000380714F42EEC3FEF909184028AE0989FE4
:10054000C0011124820F931F9E01281B390B121624
:1005500013067CF4220F331F6FEF70E0621B730BE6
:100560006230710514F461E070E060930101579806
:1005700003C08FEF8093010180910A0190910B01DC
:100580009093E7018093E601DF91CF9108958091E8
:100590004401909145019093C9018093C8018091D5
:1005A0004801909149019093CB018093CA018091B9
:1005B0004201909143019093CD018093CC018091B1
:1005C0001001909111019093D1018093D0018091FD
:1005D0004001909141019093D3018093D201809189
:1005E0004A0190914B019093D5018093D401809161
:1005F000010199279093D7018093D60180916301DF
:10060000909164019093D9018093D80180918202E6
:1006100099279093DB018093DA01809183029927D7
:100620009093DD018093DC0180918402992790935F
:10063000DF018093DE018091850299279093E1018B
:100640008093E0018091860299279093E301809343
:10065000E2018E709070959587959093E501809357
:10066000E40180910001992790930702809306028C
:100670000895F894209171013091720178948091DD
:10068000390190913A01892B09F041C0409137011D
:10069000509138014115510589F080914E01682F24
:1006A0007727F3E0660F771FFA95E1F710920201C2
:1006B00080916F008F7D80936F0020C080916001DA
:1006C0008531F0F081E08093020120916301309147
:1006D00064018BE0293B380708F09A0187E02C3F42
:1006E000380710F02BEF37E02135310530F48091D9
:1006F0003401882311F4BA0101C0B901579A02C02C
:100700005798BA01109272011092710118C0B90184
:10071000809134018A3028F4285F374010F060E07F
:1007200070E0579A10924E0110926401109263018A
:100730001092020180916F008F7D80936F00209155
:1007400082022F3FB9F0CB01AA27BB2733274427CA
:100750005527BC01CD010E94D41797FF04C06150FA
:100760007F4F8F4F9F4FBB2797FDBA95A92F982F8B
:10077000872FBC01209101012F3FC1F0CB01AA2797
:10078000BB27332744275527BC01CD010E94D4172E
:1007900097FF04C061507F4F8F4F9F4FBB2797FD3E
:1007A000BA95A92F982F872FBC0157982091000147
:1007B0002F3FC1F0CB01AA27BB273327442755275A
:1007C000BC01CD010E94D41797FF04C061507F4F38
:1007D0008F4F9F4FBB2797FDBA95A92F982F872F33
:1007E000BC0157986115710511F0685C7F4F87E077
:1007F0006C3F780710F06BEF77E0CB01089585B17F
:10080000837F85B984B18C6084B95A98529A82E802
:100810008093800089E08093810080916F008160E7
:1008200080936F00089596B5980F86B5891B87FD54
:10083000FCCF0895CF93C82F789480930001C150C6
:10084000CF3F59F057988CE291E00E940A10579AD6
:100850008CE291E00E940A10F2CF88EE93E00E94B1
:100860000A10CF910895AF92BF92CF92DF92EF928C
:10087000FF920F931F938C018CE2A82E81E0B82E7B
:10088000C12CD12C80B7877F80BFC801880F991FEA
:10089000880F991F90934B0180934A011092490150
:1008A000109248010E949501109276010E94141640
:1008B0008CE291E00E94F60F90937801809377018B
:1008C0001BC00E94591180914801909149018937BC
:1008D000910590F08BB1877C8BB985B1837F85B909
:1008E00084B18C6084B95A98529A8AE00E941A04A2
:1008F0008AE0809389013DC08091770190917801D1
:100900000E94FF0F8823E9F2A3E0000F111FAA95B0
:10091000E1F710934B0100934A010E949501EE24E8
:10092000FF248701EA14FB040C051D0558F484E636
:100930000E9413040E942C0E0894E11CF11C011D5E
:10094000111DF0CF0E9459118091480190914901E9
:100950008B35910588F08BB1877C8BB985B1837F0E
:1009600085B984B18C6084B95A98529A8AE00E9401
:100970001A0480E090E02BC0C601B5012FE030E002
:1009800040E050E00E942618A21AB30AC40AD50A11
:100990000894A108B108C108D1088FE0A816B104D5
:1009A000C104D10418F481E090E011C00E94141633
:1009B000809176018F5F809376018091760166E069
:1009C0000E94F317909376010E943210A8CF1F91D6
:1009D0000F91FF90EF90DF90CF90BF90AF90089570
:1009E000CF93DF93EC0121978FEFCF3FD807E9F04A
:1009F0000E945911809112019091130188589F4FC4
:100A000020914801309149018217930760F78BB11B
:100A1000877C8BB985B1837F85B984B18C6084B9BB
:100A20005A98529A81E090E002C080E090E0DF9115
:100A3000CF91089501972FEF8F3F9207D9F780E06C
:100A400090E00895CF92DF92EF92FF920F931F9361
:100A5000CF93DF93CDB7DEB763970FB6F894DEBFC1
:100A60000FBECDBF8E010F5F1F4F83E1E4E1F1E0C8
:100A7000D80101900D928A95E1F7EE247FEFF72ED1
:100A8000579A85B1837F85B984B18C6084B95A98AF
:100A9000529A8AE00E94900A8DE00E94900A82E0B9
:100AA00090E00E94F00480910301080F111DF801ED
:100AB0008081282F33278CE291E0289FA001299F75
:100AC000500D389F500D1124CA018C599F4F0E9420
:100AD0000A108091710190917201892B09F0CBC1AC
:100AE00080B7877F80BFF8948BB1877C8BB985B145
:100AF000837F85B984B18C6084B95A98529A1092D8
:100B000047011092460184EF91E00E94F004809129
:100B1000480190914901909313018093120187E05D
:100B20000E9431116C0184EF91E0909389008093D1
:100B30008800109249011092480180E197E20E94DA
:100B40001A05109249011092480180E197E20E9433
:100B50001A051092890180EC80937C008BB1877C10
:100B60008BB985B1837F85B984B18C6084B95A987B
:100B7000529A5C9A5D9A109249011092480108E7D6
:100B800010E02398229A529A81E090E00E941A0580
:100B900080E00E9431118536910518F051E0F52A68
:100BA00002C08EEFF82285B1837F85B984B18C6055
:100BB00084B95A98529A8CE291E00E941A05015029
:100BC000104017FFDECF8BB1877C8BB985B1837F57
:100BD00085B984B18C6084B95A98529A5B9A5D9AAF
:100BE00004E810E02298239A529A81E090E00E9453
:100BF0001A0581E00E9431118536910518F0A2E0B6
:100C0000FA2A02C0BDEFFB2285B1837F85B984B18A
:100C10008C6084B95A98529A8CE291E00E941A052D
:100C20000150104017FFDECF8BB1877C8BB985B1A7
:100C3000837F85B984B18C6084B95A98529A5B9A43
:100C40005C9A0EE610E084B18C6084B9529881E021
:100C500090E00E941A0582E00E94311185369105CC
:100C600018F0E4E0FE2A02C0FBEFFF2285B1837F8B
:100C700085B984B18C6084B95A98529A8AE491E01B
:100C80000E941A050150104017FFDDCF8BB1877C01
:100C90008BB985B1837F85B984B18C6084B95A984A
:100CA000529A5B9A08E710E02298239A529A81E0C0
:100CB00090E00E941A0580E00E943111C816D90602
:100CC00018F447EFF42202C058E0F52A85B1837F7B
:100CD00085B984B18C6084B95A98529A8AE491E0BB
:100CE0000E941A050150104017FFDECF8BB1877CA0
:100CF0008BB985B1837F85B984B18C6084B95A98EA
:100D0000529A5D9A04E810E02298239A529A81E060
:100D100090E00E941A0582E00E943111C816D9069F
:100D200018F48FEDF82202C0A0E2FA2A85B1837F81
:100D300085B984B18C6084B95A98529A88E691E05A
:100D40000E941A050150104017FFDECF8BB1877C3F
:100D50008BB985B1837F85B984B18C6084B95A9889
:100D6000529A5C9A0EE610E084B18C6084B9529875
:100D700081E090E00E941A0581E00E943111C816BE
:100D8000D90618F4BFEEFB2202C0E0E1FE2A85B1CD
:100D9000837F85B984B18C6084B95A98529A88E669
:100DA00091E00E941A050150104017FFDDCF8BB172
:100DB000877C8BB985B1837F85B984B18C6084B918
:100DC0005A98529A8091C1008F778093C100809188
:100DD000C1008F7B8093C1007894FCEECF16D104C4
:100DE00008F449C0909103018AEF989FC001112433
:100DF0000E940A108F2D992780FD04C061E0E62E25
:100E000081E405C081FD07C052E0E52E82E40E9426
:100E1000900A8BE21AC082FD04C043E0E42E83E412
:100E2000F6CF83FD04C034E0E32E81E60BC084FDE1
:100E300004C025E0E22E82E605C085FD08C096E0EC
:100E4000E92E83E60E94900A8DE20E94900AE092C9
:100E50008901EE2021F08E2D0E941A04FCCF8E2DE8
:100E60000E941A048EE20E94900A8AE00E94900A70
:100E70008DE00E94900A63960FB6F894DEBF0FBE15
:100E8000CDBFDF91CF911F910F91FF90EF90DF9039
:100E9000CF900895CFEFD4E0DEBFCDBFDD24D7B82B
:100EA00080E188B98EEB8AB9DBB88EE084B981EF36
:100EB00085B9579881E090E00E941A0581E090E0A2
:100EC0000E94F00485B1806C85B983EF91E0C297F0
:100ED00097FFFDCF1E9B06C01F9B02C081E007C08D
:100EE00082E005C01F9B02C083E001C084E08093C4
:100EF0000301189905C0809103018C5F8093030161
:100F000080910C01992790930B0180930A01879798
:100F100031F48EE290E090930B0180930A01789473
:100F20000E949C0A0E94FF030E947C1180E50E949F
:100F3000D1120E9421100E94591184EF91E00E9469
:100F4000F60F909378018093770106C0809171012C
:100F500090917201892B41F48091770190917801F1
:100F60000E94FF0F882391F710924B0110924A01C3
:100F70000E94950181E080937C00109264011092A0
:100F8000630181E385B98AE00E94900A8DE00E94A6
:100F9000900A8091710190917201892B11F40E9445
:100FA000220585E690E00E94F60F7C0186E690E03F
:100FB0000E94F60F87E690E00E94F60F909378016A
:100FC000809377018EEF90E00E94F60F5C0189E636
:100FD00090E00E94F60F8C010E9470010E949C1705
:100FE000109281028091C10080688093C100D090EE
:100FF000760110921301109212010E94390390930E
:101000004B0180934A01892B31F40E94390390935C
:101010004B0180934A01809176018D1571F01092F9
:1010200006011092080186E990E00E94F60F909365
:10103000780180937701D090760180914A01909158
:101040004B01892BA1F510923501109234011092B9
:101050000801C7010E94FF0F8823A9F180B7877F8D
:1010600080BF81E0809306018BB1877C8BB985B10D
:10107000837F85B984B18C6084B95A98529A8091E3
:1010800012019091130120914801309149012817D4
:10109000390710F4019704C08217930728F40196CA
:1010A000909313018093120182E390E009C0809134
:1010B0000601882319F081E0809335018CED95E0DD
:1010C0000E94F60F7C0180910601882321F0109286
:1010D0004B0110924A010E949501809108018150B4
:1010E000809308018F3F09F088CF82E38093080145
:1010F0000E94801480914C0190914D01892B21F028
:101100000E942C0E0E94970D80910601882341F0C9
:1011100080910701882321F00E9459111092070144
:10112000C5010E94FF0F882309F4F4C082E390E018
:101130000E94F60F5C0180913D01282F332780919A
:101140003B0190913C01B9010E94FF178091480139
:101150009091490190933C0180933B0181E0809301
:101160003D0180911201909113016817790798F061
:10117000681B790B809185029927689F9001699F70
:10118000300D789F300D1124B901E6E07695679512
:10119000EA95E1F702C060E070E08091440190912F
:1011A00045018617970710F4019604C06817790760
:1011B00028F4019790934501809344018091440164
:1011C000909145018B30910588F0681B790B77FF72
:1011D00002C0695F7F4F53E0759567955A95E1F7B7
:1011E000860F971F9093450180934401E09144013D
:1011F000F0914501CF016AE070E00E94FF17409135
:101200008302842F992786179707E8F48AE0489F7E
:10121000C00111249F01281B390BC901880F991F98
:10122000820F931F2FEF30E0A901481B590BCA0111
:101230004931510514F489E190E08F3F910521F087
:101240001CF0C90101C08FEF809300018091320131
:1012500090913301845F9140B0F084EF91E09093DE
:101260003301809332018091400190914101893C8A
:10127000910548F080914A0190914B01892B19F01A
:1012800081E0809335012091320130913301C90111
:101290009695879590934101809340014091340148
:1012A000453668F08091300190913101969587958F
:1012B0002817390720F483E080933E0102C0109282
:1012C0003E0180914A0190914B01892B71F0453686
:1012D00060F02431310548F4809130019091310162
:1012E000899718F081E080933501109231011092B6
:1012F000300110923301109232010E94E601809178
:101300004C0190914D01009729F0019790934D0168
:1013100080934C01C8010E94FF0F882379F085E07B
:1013200090E00E94F60F8C01809134018F3F19F0FC
:101330008F5F8093340181E0809307018091770172
:10134000909178010E94FF0F882331F08091400135
:10135000909141010A9728F080913501882309F482
:101360004CCE84E690E00E94F60F90937801809333
:10137000770110923401C1E0C093060180B7877FE6
:1013800080BF80913501882309F437CE80910E010A
:1013900090910F018958994008F42FCE579A1092D6
:1013A0004701109246011092350180918602282F44
:1013B00033272E703070220F331F809110019091CF
:1013C000110168E170E00E94FF17261B370B255FB3
:1013D0003F4F2430310514F424E030E0C9010E946D
:1013E0003304882309F494C082E080933E01C093C3
:1013F000060188E090E090934B0180934A010E949F
:101400009501109233011092320110923101109225
:10141000300180B78C7F80BF80B78A6080BF82E355
:1014200090E00E94F60F909378018093770180916D
:101430007701909178010E94FF0F8823C1F380917A
:101440008602282F33272E703070809110019091E2
:101450001101A4E096958795AA95E1F7281B390B11
:101460002E5E3F4F2830310514F428E030E0F3E0E1
:10147000220F331FFA95E1F7285C3F4F30934B0161
:1014800020934A010E9495010E943903892B41F063
:101490008CE291E00E94F60F90937801809377019F
:1014A00081E080933E0122C08091480190914901E2
:1014B00085369105A8F08BB1877C8BB985B1837F88
:1014C00085B984B18C6084B95A98529A8AE00E9496
:1014D0001A040E943903892B19F081E080933501A9
:1014E0008091320190913301892B41F080917701F5
:1014F000909178010E94FF0F8823B1F210923E0173
:1015000082E390E00E94F60F8C01E7E0DE2E75CDBD
:101510000E943903892B09F470CDC09335016DCD3C
:10152000982F8091C10083FF06C08091C00085FF85
:10153000FCCF9093C60008958091C1008F7780936F
:10154000C1008091C1008F7B8093C1005098589852
:10155000519A59988091C00082608093C000809118
:10156000C2008F778093C2008091C2008F7B8093EE
:10157000C2008091C2008F7D8093C2008091C20022
:101580008F7E8093C2008091C200877F8093C200CB
:101590008091C1008B7F8093C1008091C2008460E4
:1015A0008093C2008091C20082608093C2008091CB
:1015B000C10080618093C1008091C10088608093E8
:1015C000C1008091C00087FF03C08091C600F9CFA1
:1015D0008091C10080688093C1008091C1008F7BA1
:1015E0008093C10080912701909128010E94F60FFD
:1015F00090937702809376021092560110925401D4
:10160000109253011092520181E0809329011092AF
:10161000BC018FE18093BD011092C0018BE08093EB
:10162000BE011092BF018DE00E94900A8AE00E94E4
:10163000900A82E40E94900A8CE40E94900A8AE355
:101640000E94900A86E50E94900A80E30E94900A18
:101650008EE20E94900A83E30E94900A81E30E9436
:10166000900A81E60E94900A8DE00E94900A8AE02A
:101670000E94900A88E40E94900A87E50E94900ADE
:101680008AE30E94900A82E30E94900A8EE20E94FE
:10169000900A80E30E94900A80E20E94900A82E50C
:1016A0000E94900A85E60E94900A86E70E94900AAE
:1016B00080912C016AE00E94F317805D0E94900ADD
:1016C00080912C016AE00E94F317892F805D0E94AF
:1016D000900A08958091C00086FF29C08091290159
:1016E000882309F5809157019091580101969093B4
:1016F000580180935701FC01E85FFD4FE081ED3018
:1017000019F08E36910539F4109258011092570154
:1017100081E0809329018091C00080648093C000A3
:10172000E093C60008951092580110925701089551
:101730001F920F920FB60F9211242F933F934F9346
:101740005F938F939F93AF93BF93CF93DF93EF9369
:10175000FF935091C60080915601882309F074C010
:1017600040915B01442371F4533279F450938A0120
:1017700081E080935B0183E290E090935A01809333
:10178000590162C0423308F05BC020915901309189
:101790005A01E42FFF275D3069F0E657FE4F508372
:1017A0004F5F40935B01250F311D30935A01209309
:1017B00059014AC0DF01A657BE4FFD013297808113
:1017C000281B3109ED0121978881281B3109C901A6
:1017D0009F7090935A0180935901689415F89695DB
:1017E00087951694E1F7982F935C2F733070235CE4
:1017F0008081981701F588812817E9F480ED97E03A
:1018000090934D0180934C015C934F5F4093550141
:1018100081E08093560180918C01823571F488E1DA
:1018200090E02CE00FB6F894A895809360000FBE6E
:101830002093600002C01092560110925B0104C018
:1018400080935B0180935601FF91EF91DF91CF91DF
:10185000BF91AF919F918F915F914F913F912F9148
:101860000F900FBE0F901F901895AC01A0E0B0E054
:101870009D01A817B90748F4E8E0F2E08191280F2C
:10188000311D1196A417B507C8F33F70FD01E85F3D
:10189000FD4FC90176E0969587957A95E1F7835CCF
:1018A00080831196FD01E85FFD4F2F733070822F0A
:1018B000835C8083A75FBD4F8DE08C9310922901DC
:1018C000809108028093C6000895BF92CF92DF9264
:1018D000EF92FF920F931F93CF93DF93CDB7DEB7B5
:1018E0002C859D850E85BB2483E2809308029F5939
:1018F0009093090220930A0233E0E32EF12C002397
:1019000009F49EC0CF84D888BE016D5E7F4FA9893F
:10191000BA890150109709F493C01097B9F0F601F5
:10192000EB0DF11DB3949081119791F4002349F1CF
:10193000FB016E5F7F4FDB01C080D1806E5F7F4F08
:101940000D90BC91A02DBB24015002C090E019C0A5
:101950001097B9F0F601EB0DF11DB394408111978A
:1019600091F4002341F1FB016E5F7F4FDB01C080EA
:10197000D1806E5F7F4F0D90BC91A02DBB24015094
:1019800002C040E018C01097B1F0F601EB0DF11D58
:10199000B3941081119781F4002371F0FB0132960A
:1019A000DB01CD90DC90BF016E5F7F4FA081B181E4
:1019B000BB24015001C010E0F701E85FFD4F892F03
:1019C00086958695835C80830894E11CF11CF70161
:1019D000E85FFD4F892F99278370907024E0880F6E
:1019E000991F2A95E1F755279A0194E03695279596
:1019F0009A95E1F7822B835C80830894E11CF11CAB
:101A0000F701E85FFD4F4F705070440F551F440FB2
:101A1000551F812F992726E0969587952A95E1F7FE
:101A2000842B835C80830894E11CF11CF701E85F40
:101A3000FD4F1F73135C10830894E11CF11C6ACFE7
:101A4000C7010E94350CDF91CF911F910F91FF903C
:101A5000EF90DF90CF90BF900895A3E07A2F409150
:101A600055014650442309F458C0E72FFF27E65795
:101A7000FE4F80818D537F5FE72FFF27E657FE4F94
:101A800020812D537F5FE72FFF27E657FE4F3081E0
:101A90003D537F5FE72FFF27E657FE4F60816D5371
:101AA0007F5F9927880F991F880F991F522F529592
:101AB0005F70582B822F99278F709070F4E0880FF9
:101AC000991FFA95E1F7232F26952695282B832F2A
:101AD000992783709070E6E0880F991FEA95E1F7E7
:101AE000682B41504F3FC9F0EA2FFF27E657FE4FC2
:101AF0005083AF5F41504F3F81F0EA2FFF27E657F9
:101B0000FE4F2083AF5F41504F3F39F0EA2FFF2750
:101B1000E657FE4F6083AF5FA5CF8DE891E09093CD
:101B2000540180935301A350A093520108958091D2
:101B30005601882309F48FC00E942D0D80918C01DD
:101B400099278437910509F448C0853791054CF4ED
:101B50008136910509F46BC08436910509F450C0B3
:101B600072C08637910509F45EC08637910524F06E
:101B700087379105D1F067C0E0915301F09154018E
:101B8000908180910301981751F09081992319F465
:101B900090934F0106C082E080934F0102C01092E3
:101BA0004F018091510188604CC0E0915301F09148
:101BB00054018081882329F0908180910301981736
:101BC00029F4CF0101960E94341701C082E080936E
:101BD0004F0180915101806134C080910301E091F7
:101BE0005301F0915401E80FF11D319780818093EA
:101BF0004E0184EF91E0909338018093370123C028
:101C0000E0915301F091540190818AE0989FC001C6
:101C100011249093280180932701892BA1F08091B2
:101C2000510182600EC08091510181600AC0E09133
:101C30005301F091540180818093500180915101B2
:101C400084608093510110925401109253011092BC
:101C50005201109256010895CF93DF93CDB7DEB7AE
:101C600061970FB6F894DEBF0FBECDBF80912901FA
:101C7000882319F40E946A0BE6C08091510182FF0B
:101C800030C080915001992724E0880F991F2A9530
:101C9000E1F78A559F4F40E150E0BC01CE0101962B
:101CA0000E94C71780E190E09F938F93CE01019629
:101CB0009F938F9381E090E09F938F9380E591E0D5
:101CC0009F938F9382E08F9385E08F9381E48F932E
:101CD0000E94650C8FEF80935001809151018B7FA2
:101CE000A8C08091270190912801892B41F0809113
:101CF0007602909177020E94FF0F882329F4809149
:101D00005101992781FF20C00E94C70282E490E020
:101D10009F938F9386EC91E09F938F9381E08F93B5
:101D200085E08F9384E48F930E94650C8091270156
:101D3000909128010E94F60F90937702809376028B
:101D4000809151018D7F15C080FF19C08AE090E01D
:101D50009F938F938CEB91E09F938F9381E08F9370
:101D600085E08F9386E58F930E94650C80915101E9
:101D70008E7F809351018DB79EB707965FC083FF1A
:101D800035C080914F01882319F481E0898B01C00F
:101D9000198A88E090E09F938F9380E892E09F9368
:101DA0008F9321E030E03F932F9383E091E09F9366
:101DB0008F933F932F938FE491E09F938F933F9363
:101DC0002F93CE0141969F938F9384E08F9385E06C
:101DD0008F9385E58F930E94650C80915101877FD9
:101DE000809351018DB79EB7439628C084FF2BC0C6
:101DF00080914F01882319F481E0898B01C0198AF1
:101E000021E030E03F932F938FE491E09F938F93F5
:101E10003F932F93CE0141969F938F9382E08F93B0
:101E200085E08F9387E58F930E94650C8091510127
:101E30008F7E809351018DB79EB70B960FB6F894A5
:101E40009EBF0FBE8DBF61960FB6F894DEBF0FBE6A
:101E5000CDBFDF91CF9108951F93CF93DF93EC0116
:101E600010E08881882369F0FE01E10FF11D1F5FFA
:101E700080810E94900AFE01E10FF11D808188237C
:101E800099F7DF91CF911F9108951F920F920FB68E
:101E90000F9211242F933F934F935F936F937F93F0
:101EA0008F939F93AF93BF93EF93FF9380913F01E5
:101EB000882319F0815080933F0180915E01815009
:101EC00080935E018F3F09F080C083E080935E01C4
:101ED00080915C0190915D01019690935D018093EA
:101EE0005C018091390190913A01009719F10197B5
:101EF00090933A018093390121E0883B920739F0B1
:101F000021E08C32920719F08436910599F480E52E
:101F10000E94DB128091390190913A01885B9140D7
:101F200049F48091E6019091E70101969093E701D1
:101F30008093E60180916101882331F080916101F5
:101F400081508093610102C08093600180913701CC
:101F500090913801009729F0019790933801809370
:101F6000370180913601882319F081508093360122
:101F700080912A0190912B01019790932B018093DE
:101F80002A018F5F9F4F09F5209142013091430153
:101F90008DEF283E380750F480914401909145011F
:101FA000280F391F309343012093420188E795E0C1
:101FB00090932B0180932A018091390190913A01ED
:101FC000892B19F480E50E94DB12FF91EF91BF91FC
:101FD000AF919F918F917F916F915F914F913F91C1
:101FE0002F910F900FBE0F901F90189520915C01BC
:101FF00030915D01280F391FC90101970895209183
:102000005C0130915D01821B930B892F99278078A9
:1020100099270895CF93DF930E94F60FEC01CE012C
:102020000E94FF0F8823D9F3DF91CF9108951F926B
:102030000F920FB60F9211240F900FBE0F901F90AA
:10204000189586EA80937A0087EC80937C008091D3
:102050007A00806480937A0080917B008064809312
:102060007B000895809136018150809336018F3F27
:1020700009F094C084E68093360180915F0181501D
:1020800080935F018F3F09F050C020917C0097EC56
:1020900090937C0080B7806880BF83ED80937A0046
:1020A00080917A00806180937A0090937C00809187
:1020B0007A00806480937A0080917A0084FFFCCF5C
:1020C00020937C00209178003091790083E190E0AA
:1020D000289FA001299F500D389F500D11249A016F
:1020E00066E0369527956A95E1F72F3F310519F09F
:1020F00010F02FEF30E08091100190911101820FCC
:10210000931F9695879590931101809310011092DB
:102110007A0080917B00806480937B0080B78F770A
:1021200080BF83E080935F01089520917C0083EC61
:1021300080937C0080B7806880BF83ED80937A00B5
:1021400080917A00806180937A0087EC80937C0094
:1021500080917A00806480937A0080917A0084FF75
:10216000FCCF20937C0080917800909179009C01B5
:1021700043E0220F331F4A95E1F7280F391F280F3C
:10218000391F80910E0190910F01820F931F969538
:10219000879590930F0180930E0158C020917C0089
:1021A00086EC80937C0080B7806880BF83ED80934D
:1021B0007A0080917A00806180937A0087EC809326
:1021C0007C0080917A00806480937A0080917A000C
:1021D00084FFFCCF20937C0080910C01282F3327B3
:1021E0008091780090917900829FA001839F500D8B
:1021F000929F500D1124CA019695879596958795C3
:1022000020913B0130913C01280F391F30933C0154
:1022100020933B0180913D018F5F80933D01409170
:10222000480150914901420F531F569547955093CD
:1022300049014093480180914601909147018417DC
:10224000950720F4509347014093460110927A007D
:1022500080917B00806480937B0080B78F7780BF04
:10226000089520917C00982F906C90937C0080B70B
:10227000806880BF83ED80937A0080917A008061CE
:1022800080937A0090937C0080917A0080648093A0
:102290007A0080917A0084FFFCCF20937C0010921A
:1022A0007A0080B78F7780BF809178009091790015
:1022B000089586E00E94311120910C013327829FFE
:1022C000A001839F500D929F500D11249A0174E03C
:1022D000369527957A95E1F7309349012093480187
:1022E00080914601909147018217930720F4309323
:1022F000470120934601089580918100806C80936E
:1023000081008091810080648093810080916F00C2
:10231000806280936F0080916F00816080936F0076
:1023200084E08093B10008951F920F920FB60F9230
:1023300011242F933F938F939F9380916501282FB2
:1023400033278F5F8093650121303105B1F0223052
:1023500031051CF4232B41F038C022303105B1F097
:102360002330310511F131C080912D0190912E0162
:10237000909389008093880028C080912F0120913C
:102380002D0130912E01823058F008C080912F012C
:1023900020912D0130912E01833011F42F5F3F4F9A
:1023A000309389002093880010C080912F012091E4
:1023B0002D0130912E01882311F02F5F3F4F309374
:1023C00089002093880010926501809162018F5FDF
:1023D000809362019F918F913F912F910F900FBE3B
:1023E0000F901F9018951F920F920FB60F92112405
:1023F0002F933F934F935F936F937F938F939F930D
:10240000AF93BF938091810086FF17C080916201D6
:1024100080936A0180918600909187009093670174
:1024200080936601809181008F7B8093810084E698
:10243000809361011092B200A5C0809181008064F8
:102440008093810080916201282F332780916A0157
:10245000281B3109322F2227330F8091860090915B
:102460008700280F391F8091660190916701281B12
:10247000390B30936901209368018091B200682F75
:102480007727689415F8660F771F1694E1F7AB016C
:10249000445D5E4F42175307A0F4C901805092403B
:1024A00090936901809368014817590738F5805067
:1024B0009240909369018093680148175907F0F49E
:1024C00019C0AB014C52514024173507B8F4C9016B
:1024D00080509E4F909369018093680184179507FF
:1024E00068F480509E4F909369018093680184172F
:1024F000950720F4709369016093680180916801E9
:102500009091690163E070E00E94FF177093690188
:1025100060936801809160018F3F51F06D587A405F
:10252000635F714028F4809160018F5F8093600148
:1025300080916801909169018C519C4030F48CE14C
:102540009CE090936901809368018091680190916B
:1025500069018C519C4040916301509164019A0142
:10256000220F331F240F351F280F391F369527954B
:102570003695279530936901209368013093640163
:1025800020936301BF91AF919F918F917F916F9144
:102590005F914F913F912F910F900FBE0F901F9021
:1025A000189590910301990F980F9093BA0085ECBC
:1025B0008093BC0008951092BC0090910301990F84
:1025C000980F9093BA0085EC8093BC0008951F92F9
:1025D0000F920FB60F9211242F933F934F935F9357
:1025E0006F937F938F939F93AF93BF93EF93FF93DB
:1025F0008091B9009927887F90708038910529F1E2
:10260000813891053CF4009709F45AC18036910550
:1026100091F062C1883B910509F4A2C0893B910504
:102620002CF4883A910509F49BC056C1883F910566
:1026300009F446C151C18091BC0080688093BC0000
:1026400010927501109274014AC14091BB008091B3
:10265000BC0080688093BC0080917401282F3327D0
:102660008F5F809374012130310509F44AC0223014
:1026700031051CF4232B31F069C02230310509F4F7
:1026800057C064C0442369F480917301882349F0E2
:102690008091390190913A01892B19F081E090E005
:1026A00011C08091390190913A01892B81F080917C
:1026B0007301882361F0842F992753E0880F991FB5
:1026C0005A95E1F7909372018093710104C01092C2
:1026D0007201109271014093730180916C0190918D
:1026E0006D012091440130914501820F931F909319
:1026F0006D0180936C0180916B018F5F80936B0102
:1027000028C020917101309172012115310551F0DD
:10271000842F992787709070280F391F309372018A
:10272000209371014695469546954093750111C0D9
:1027300080916E01883068F4E82FFF27E858FD4F3C
:1027400040838F5F80936E0182E001C08EEF8093A3
:10275000740184EF91E090933A0180933901BFC0F6
:10276000209175012F3108F0A4C0822F9927AA2744
:10277000BB272F5F20937501FC014F9708F0A0C085
:10278000EC5CFF4FEE0FFF1F0590F491E02D0994D4
:1027900080914401909145018F3F910570F48091A3
:1027A00044010CC0809144019091450121E08F3F8C
:1027B000920718F49695879501C08EEF8093BB0021
:1027C0008091BC00806889C08091710190917201F4
:1027D000892B11F48AEFF2CF80913401823310F407
:1027E00088E2ECCF9091000180910101891730F3CC
:1027F0009093BB00E5CF80910D01E0CF8091400127
:10280000DDCF8091420190914301892F99278695D0
:10281000D5CF8091420190914301892F9927CECF46
:1028200080911001CBCF80916F01C8CF8FE1C6CFCF
:1028300020916B01223348F4332780916C019091F1
:102840006D01B9010E94FF1704C0609144017091AD
:1028500045016E3F710518F46093BB0003C08EEF15
:102860008093BB0010926D0110926C0110926B016D
:10287000A7CF80918002A2CF809181029FCF8091CB
:1028800082029CCF8091830299CF8091840296CF5F
:102890008091850293CF8091860290CF80918702AC
:1028A0008DCF809189018ACF1092BB0089CF85EAB4
:1028B00085CF8FEF8093BB008EEF8093750180CF23
:1028C00085ED8093BC0080916F019091700101961D
:1028D0009093700180936F0185EC8093BC00FF9111
:1028E000EF91BF91AF919F918F917F916F915F9188
:1028F0004F913F912F910F900FBE0F901F90189501
:1029000080916E01883030F088E792E00E943417A1
:1029100010926E0108951F920F920FB60F9211241C
:102920001F932F933F934F935F936F937F938F9357
:102930009F93AF93BF93CF93EF93FF931EE180914B
:102940003F01882309F05BC100B605FE02C0C1E06B
:1029500001C0C0E08091860280FD80C08091760138
:1029600099278230910599F1833091052CF40097D5
:1029700071F0019709F12BC18430910509F43EC033
:10298000843091057CF1059709F44FC020C123984C
:10299000229A529ACC2309F4E9C08BB1877E8BB975
:1029A0005D9A80910701882311F00E94321080B750
:1029B0008E7F80BF81EC80C08BB1877E8BB95D9AA2
:1029C000CC2309F0BDC02298239A529AB1C0229814
:1029D000239A529ACC2309F49CC08BB18F7C8BB97B
:1029E0005B9A8FC08BB18F7C8BB95B9ACC2309F03B
:1029F0007CC084B18C6084B952986FC084B18C6003
:102A000084B95298CC2309F45AC08BB1877D8BB915
:102A10005C9A80910701882311F00E94321080ECAB
:102A200080937C0080B78E7FBAC08BB1877D8BB9D5
:102A30005C9ACC2309F0C7C02398229A529A8091BD
:102A40000701882311F00E94321082EC80937C00F1
:102A500080B7836080BFC0937601A7C08091760164
:102A600099278230910509F443C0833091052CF4F5
:102A7000009779F0019741F1AAC08430910509F4DB
:102A800063C0843091050CF449C0059709F473C004
:102A90009EC02298239A529ACC2389F08BB1877ECC
:102AA0008BB95D9A80910701882311F00E94321042
:102AB00080B78E7F80BF80EC80937C0071C08BB12B
:102AC0008F7C8BB95B9A83C08BB1877E8BB95D9A03
:102AD000CC2359F42398229A529A80910701882393
:102AE00011F00E94321081EC56C02298239A2AC01D
:102AF0002398229A529ACC2361F08BB1877D8BB9AF
:102B00005C9A80910701882311F00E94321082ECB8
:102B100087CF8BB1877E8BB95D9A59C08BB1877D8A
:102B20008BB95C9ACC2361F484B18C6084B95298DF
:102B300080910701882311F00E94321080EC2BC095
:102B40002398229A529A43C084B18C6084B95298D7
:102B5000CC2361F08BB18F7C8BB95B9A809107019C
:102B6000882311F00E94321081EC5ACF8BB1877DFF
:102B70008BB95C9A2CC08BB18F7C8BB95B9ACC23C0
:102B800011F52298239A529A80910701882311F017
:102B90000E94321082EC80937C0080B7836080BFFB
:102BA000809176018F5F80937601809132019091C0
:102BB00033010196909333018093320180913E015D
:102BC00080933F0104C084B18C6084B95298809195
:102BD0003001909131010196909331018093300141
:102BE00011501F3F61F000B605FC03C0CC2309F073
:102BF000ABCE00B605FE03C0CC2309F4A5CE1092DF
:102C00000701FF91EF91CF91BF91AF919F918F916C
:102C10007F916F915F914F913F912F911F910F90F5
:102C20000FBE0F901F9018958091860280FD4FC0B7
:102C30008091760199278230910539F18330910591
:102C40002CF4009761F0019791F00895843091057C
:102C500061F1843091050CF1059781F10895239875
:102C6000229A529A8BB1877D8BB95C9A4EC0239879
:102C7000229A529A8BB1877E8BB95D9A81EC8093B0
:102C80007C0080B78E7F80BF08952298239A529A45
:102C90008BB1877E8BB95D9A5DC02298239A529A38
:102CA0008BB18F7C8BB95B9A4BC084B18C6084B93B
:102CB00052988BB18F7C8BB95B9A39C084B18C6090
:102CC00084B952988BB1877D8BB95C9A27C080916B
:102CD000760199278230910519F1833091052CF402
:102CE000009761F0019799F008958430910551F1B2
:102CF00084309105F4F0059799F108952298239A6C
:102D0000529A8BB18F7C8BB95B9A82EC24C022984B
:102D1000239A529A8BB1877E8BB95D9A80ECAFCFA4
:102D20002398229A529A8BB1877E8BB95D9A81EC57
:102D300012C02398229A529A8BB1877D8BB95C9AE4
:102D400082EC9DCF84B18C6084B952988BB1877D21
:102D50008BB95C9A80EC80937C0080B7836093CFC2
:102D600084B18C6084B952988BB18F7C8BB95B9A9B
:102D700085CF9C018FB39927827090700197D1F312
:102D80001FBA832F992782BD82B581BD0895DC01CA
:102D900090E04115510579F09D01FB01E90FF11D0E
:102DA0009F5F8081D901082E0E9450182F5F3F4FEE
:102DB0004150504091F70895FC01DB014115510548
:102DC00049F00E944818802D8083415050404115A1
:102DD0005105E9F708954AEA20E030E02617370761
:102DE00040F4FC018191480F2F5F3F4F26173707B2
:102DF000C8F3842F9927089582E08093800210926F
:102E000081028FEF8093820298E29093830284E69E
:102E10008093840280E48093850284E0809386021C
:102E200080910901891710F48093830267E070E0B4
:102E300080E892E00E94EB168093870208958091CB
:102E40008002823081F467E070E080E892E00E94C6
:102E5000EB168093870247E050E060E872E080E084
:102E600090E00E94C7160895CF93DF93EC0167E0CE
:102E700070E00E94EB162F8133278217930719F019
:102E800085E090E056C08881823019F084E090E0BF
:102E900050C08981282F332726FF03C00E94FC16CB
:102EA00041C01092810220FF03C08A818093820278
:102EB00021FF03C08B818093830222FF03C08C819A
:102EC0008093840223FF03C08D818093850224FFB9
:102ED00008C0909186029E708E81817F982B90937E
:102EE000860225FF08C090918602917F8E818E70A8
:102EF000982B9093860280918402833718F083E7A1
:102F0000809384028091830290910901891710F0C7
:102F10009093830267E070E080E892E00E94EB16F5
:102F200080938702898187FF02C00E941F1780E07B
:102F300090E0DF91CF91089547E050E060E070E0CD
:102F400080E892E00E94DC1667E070E080E892E0A2
:102F50000E94EB16282F80918002823021F480910C
:102F60008702821721F00E94FC160E941F17809191
:102F7000830290910901891710F090938302809148
:102F80008402833718F083E7809384020895FB015D
:102F9000DC0140FF05C002C005900D9205900D9226
:102FA00042505040C8F70895629FD001739FF001CE
:102FB000829FE00DF11D649FE00DF11D929FF00DC9
:102FC000839FF00D749FF00D659FF00D9927729F00
:102FD000B00DE11DF91F639FB00DE11DF91FBD018B
:102FE000CF0111240895991B79E004C0991F961709
:102FF00008F0961B881F7A95C9F780950895AA1B3B
:10300000BB1B51E107C0AA1FBB1FA617B70710F0D3
:10301000A61BB70B881F991F5A95A9F78095909505
:10302000BC01CD01089597FB092E07260AD077FD34
:1030300004D0E5DF06D000201AF4709561957F4F2B
:103040000895F6F7909581959F4F0895A1E21A2E65
:10305000AA1BBB1BFD010DC0AA1FBB1FEE1FFF1F3C
:10306000A217B307E407F50720F0A21BB30BE40B8C
:10307000F50B661F771F881F991F1A9469F76095D3
:103080007095809590959B01AC01BD01CF0108958D
:10309000F999FECFB2BDA1BDF89A119600B408957A
:1030A000F999FECFB2BDA1BD00BC11960FB6F89440
:0830B000FA9AF99A0FBE089587
:1030B800FFFF0101FB07010101281900191E1E204D
:1030C8008000050000000201030405060708090A3C
:0C30D8000B0C0D0E0F1011881301FF00EF
:00000001FF
